:100000008FD705000000000095D705000000000014
:100010009BD7050000000000A1D7050000000000EC
:10002000A7D7050000000000ADD7050000000000C4
:10003000B3D705000000000066E1050000000000E5
:10004000010000000400000079E10500000000004C
:1000500000000000000000007DE10500000000003D
:10006000010000002500000091E1050000000000F3
:100070000000000000000000B6E1050000000000E4
:100080000500000010000000B0160800000000008D
:1000900018E3000000000000C7E1050000000000B8
:1000A000030000000400000044DA07000000000024
:1000B0000000000000000000EAE105000000000070
:1000C000030000000400000048DA07000000000000
:1000D000000000000000000013E205000000000026
:1000E00003000000040000004CDA070000000000DC
:1000F00000000000000000002FE2050000000000EA
:10010000020000000100000050DA070000000000BB
:10011000000000000000000048E2050000000000B0
:10012000030000000400000054DA07000000000093
:1001300000000000000000007CE20500000000005C
:10014000010000006400000058DA07000000000011
:100150000000000000000000A5E205000000000013
:100160000400000004000000C016080000000000A9
:100170000000000000000000D4E2050000000000C4
:100180000100000008000000BCDA070000000000C9
:100190000000000000000000F2E205000000000086
:1001A0000200000001000000C4DA070000000000A7
:1001B000000000000000000010E305000000000047
:1001C0000100000003000000C5DA07000000000085
:1001D000000000000000000026E305000000000011
:1001E0000300000004000000C8DA0700000000005F
:1001F00000000000000000003EE3050000000000D9
:100200000300000004000000CCDA0700000000003A
:1002100000000000000000005AE30500000000009C
:100220000300000004000000C416080000000000E5
:10023000000000000000000079E30500000000005D
:100240000300000004000000C816080000000000C1
:10025000000000000000000098E30500000000001E
:100260000200000001000000CC16080000000000A1
:100270000000000000000000BEE3050000000000D8
:100280000200000001000000CD1608000000000080
:100290000000000000000000A81608000000000098
:1002A000A016080000000000D016080000000000A2
:1002B00074EB0500000000000100000001000000D8
:1002C000000000000200000001000000000000002B
:1002D00010000000000000000023070000000000E4
:1002E000020000000000000000000000000000000C
:1002F000100000000000000078EC05000000000085
:1003000000000000000000000000000000000000ED
:10031000000000000000000082EC0500000000006A
:10032000FC97040000000000000000000000000036
:1003300000000000000000000800000000000000B5
:1003400084EC050000000000FC97040000000000A1
:100350004000000041000000140000000000000008
:100360000C000000000000000C6101000000000013
:1003700054610100000000009C61010000000000C9
:10038000000000000000000000000000000000006D
:100390002816020000000000E41B0200000000001C
:1003A0000600000013000000000000000000000034
:1003B0000000000040000000680000000000000095
:1003C0000000000000000000A30200009F020000E7
:1003D0001C000000000000000C00000000000000F5
:1003E000EC61010000000000346201000000000028
:1003F0007C6201000000000000000000000000001E
:1004000000000000000000002816020000000000AC
:10041000E41B0200000000000600000013000000C2
:10042000000000000000000000000000400000008C
:100430007800000000000000000000000000000044
:10044000A00200009C02000020000000000000004C
:100450000C00000000000000CC6201000000000061
:1004600034620100000000007C6201000000000016
:10047000000000000000000000000000000000007C
:100480002816020000000000E41B0200000000002B
:100490000600000013000000000000000000000043
:1004A0000000000040000000780000000000000094
:1004B0000000000000000000A10200009D020000FA
:1004C00030000000000000000C00000000000000F0
:1004D00014630100000000005C63010000000000E4
:1004E000A463010000000000000000000000000004
:1004F00000000000000000002816020000000000BC
:10050000E41B0200000000000600000013000000D1
:10051000000000000000000000000000800000005B
:10052000E0000000000000000000000000000000EB
:10053000A20200009E020000400000000000000037
:100540000C00000000000000F46301000000000047
:100550005C63010000000000A463010000000000D3
:10056000000000000000000000000000000000008B
:100570002816020000000000E41B0200000000003A
:100580000600000013000000000000000000000052
:100590000000000080000000E000000000000000FB
:1005A0000000000000000000A30100001000000097
:1005B00010000000100000000250000000000000C9
:1005C0001094010000000000FC94010000000000F5
:1005D0000000000000000000080100000000000012
:1005E000000000000000000000000000000000000B
:1005F00000000000000000000000000000000000FB
:10060000A201000010000000100000000000000027
:1006100001500000000000001094010000000000E4
:1006200080950100000000000000000000000000B4
:1006300008010000000000000000000000000000B1
:1006400000000000000000000000000000000000AA
:100650000000000000000000A401000001000000F4
:100660001000000010000000045000000000000016
:10067000109401000000000024960100000000001A
:100680000000000000000000080100000000000061
:10069000000000000000000000000000000000005A
:1006A000000000000000000000000000000000004A
:1006B000A501000001000000100000001000000073
:1006C0000350000000000000109401000000000032
:1006D0008C960100000000000000000000000000F7
:1006E0000801000000000000000000000000000001
:1006F00000000000000000000000000000000000FA
:1007000000000000000000008A020000010000005C
:100710001000000010000000034000000000000076
:100720001094010000000000F89601000000000095
:1007300000000000000000000801000000000000B0
:1007400000000000000000000000000000000000A9
:100750000000000000000000000000000000000099
:100760008D020000010000001000000010000000D9
:100770000340000000000000109401000000000091
:1007800018980100000000000000000000000000B8
:100790000801000000000000000000000000000050
:1007A0000000000000000000000000000000000049
:1007B00000000000000000008803000001000000AD
:1007C00010000000100000000540000000000000C4
:1007D0001094010000000000849801000000000057
:1007E0000000000000000000080100000000000000
:1007F00000000000000000000000000000000000F9
:1008000000000000000000000000000000000000E8
:10081000A7010000100000001800000010000000F8
:1008200002500000000000001094010000000000D1
:10083000FC94010000000000000000000000000027
:10084000080100000000000000000000000000009F
:100850000000000000000000000000000000000098
:100860000000000000000000A601000010000000D1
:10087000180000000000000001500000000000000F
:1008800010940100000000008095010000000000AD
:10089000000000000000000008010000000000004F
:1008A0000000000000000000000000000000000048
:1008B0000000000000000000000000000000000038
:1008C000A801000001000000180000001000000056
:1008D000045000000000000010940100000000001F
:1008E000249601000000000000000000000000004D
:1008F00008010000000000000000000000000000EF
:1009000000000000000000000000000000000000E7
:100910000000000000000000A9010000010000002C
:10092000180000001000000003500000000000004C
:1009300010940100000000008C96010000000000EF
:10094000000000000000000008010000000000009E
:100950000000000000000000000000000000000097
:100960000000000000000000000000000000000087
:100970008B020000010000001800000010000000C1
:10098000034000000000000010940100000000007F
:10099000F8960100000000000000000000000000C8
:1009A000080100000000000000000000000000003E
:1009B0000000000000000000000000000000000037
:1009C00000000000000000008E0200000100000096
:1009D00018000000100000000340000000000000AC
:1009E00010940100000000001898010000000000B1
:1009F00000000000000000000801000000000000EE
:100A000000000000000000000000000000000000E6
:100A100000000000000000000000000000000000D6
:100A20008903000001000000180000001000000011
:100A300005400000000000001094010000000000CC
:100A40008498010000000000000000000000000089
:100A5000080100000000000000000000000000008D
:100A60000000000000000000000000000000000086
:100A70000000000000000000AB01000010000000BA
:100A800020000000100000000250000000000000E4
:100A90001094010000000000FC9401000000000020
:100AA000000000000000000008010000000000003D
:100AB0000000000000000000000000000000000036
:100AC0000000000000000000000000000000000026
:100AD000AA0100001000000020000000000000003B
:100AE0000150000000000000109401000000000010
:100AF00080950100000000000000000000000000E0
:100B000008010000000000000000000000000000DC
:100B100000000000000000000000000000000000D5
:100B20000000000000000000AC0100000100000017
:100B30002000000010000000045000000000000031
:100B40001094010000000000249601000000000045
:100B5000000000000000000008010000000000008C
:100B60000000000000000000000000000000000085
:100B70000000000000000000000000000000000075
:100B8000AD01000001000000200000001000000086
:100B9000035000000000000010940100000000005D
:100BA0008C96010000000000000000000000000022
:100BB000080100000000000000000000000000002C
:100BC0000000000000000000000000000000000025
:100BD00000000000000000008C0200000100000086
:100BE0002000000010000000034000000000000092
:100BF0001094010000000000F896010000000000C1
:100C000000000000000000000801000000000000DB
:100C100000000000000000000000000000000000D4
:100C200000000000000000000000000000000000C4
:100C30008F020000010000002000000010000000F2
:100C400003400000000000001094010000000000BC
:100C500018980100000000000000000000000000E3
:100C6000080100000000000000000000000000007B
:100C70000000000000000000000000000000000074
:100C800000000000000000008A03000001000000D6
:100C900020000000100000000540000000000000DF
:100CA0001094010000000000849801000000000082
:100CB000000000000000000008010000000000002B
:100CC0000000000000000000000000000000000024
:100CD0000000000000000000000000000000000014
:100CE0007F03000001000000100000000C00000065
:100CF00076503000000000002C9901000000000038
:100D00007490010000000000389A0100000000000B
:100D1000A802000000000000000000000000000029
:100D20000000000000000000B09A01000000000078
:100D3000000000000000000082030000010000002D
:100D4000180000000C000000765030000000000089
:100D50002C990100000000007490010000000000C8
:100D6000389A010000000000A80200000000000006
:100D70000000000000000000000000000000000073
:100D8000B09A010000000000000000000000000018
:100D90008503000001000000200000000C0000009E
:100DA00076503000000000002C9901000000000087
:100DB0007490010000000000389A0100000000005B
:100DC000A802000000000000000000000000000079
:100DD0000000000000000000B09A010000000000C8
:100DE000000000000000000005EF0500000000000A
:100DF0000BEF0500000000000000000001000000F3
:100E00007066060000000000000000000000000006
:100E100015EF0500000000001CEF050000000000B9
:100E200001000000060000007166060000000000DE
:100E3000000000000000000034EF0500000000008A
:100E400039EF05000000000002000000070000006C
:100E500077660600000000000000000000000000AF
:100E600056EF0500000000005AEF050000000000EA
:100E700003000000080000007E660600000000007D
:100E800000000000000000005EEF05000000000010
:100E900062EF0500000000000400000008000000F0
:100EA0008666060000000000000000000000000050
:100EB00066EF0500000000006AEF0500000000007A
:100EC00005000000080000008E660600000000001B
:100ED00000000000000000006EEF050000000000B0
:100EE0006EEF050000000000060000000900000091
:100EF00096660600000000000000000000000000F0
:100F00007CEF05000000000084EF050000000000F9
:100F100007000000090000009F66060000000000B6
:100F2000000000000000000099EF05000000000034
:100F3000A1EF05000000000008000000090000000B
:100F4000A86606000000000000000000000000008D
:100F5000B6EF050000000000C2EF05000000000031
:100F60000900000009000000B16606000000000052
:100F70000000000000000000D7EF050000000000A6
:100F8000E3EF0500000000000A0000000900000077
:100F9000BA6606000000000000000000000000002B
:100FA000F8EF050000000000FDEF05000000000064
:100FB0000B00000001000000C366060000000000F6
:100FC000000000000000000018F005000000000014
:100FD00018F00500000000000C00000002000000F6
:100FE000C4660600000000000000000000000000D1
:100FF0001DF005000000000020F0050000000000CA
:101000000D00000003000000C6660600000000009E
:1010100000000000000000002BF0050000000000B0
:101020002DF00500000000000E000000030000008D
:10103000C96606000000000000000000000000007B
:1010400039F00500000000003BF005000000000042
:101050000F00000003000000CC6606000000000046
:10106000000000000000000048F005000000000043
:101070004BF005000000000010000000030000001D
:10108000CF66060000000000000000000000000025
:101090005FF005000000000061F0050000000000A6
:1010A0001100000003000000D266060000000000EE
:1010B000000000000000000072F0050000000000C9
:1010C00075F00500000000001200000003000000A1
:1010D000D5660600000000000000000000000000CF
:1010E0008CF005000000000090F0050000000000FA
:1010F0001300000004000000D86606000000000095
:10110000000000000000000094F005000000000056
:1011100094F005000000000014000000080000002A
:10112000DC66060000000000000000000000000077
:101130009AF00500000000009AF005000000000091
:101140001500000009000000E46606000000000031
:101150000000000000000000A5F0050000000000F5
:10116000A5F00500000000001600000009000000C6
:10117000ED66060000000000000000000000000016
:10118000B6F0050000000000B6F005000000000009
:101190001700000009000000F666060000000000CD
:1011A0000000000000000000CAF005000000000080
:1011B000CAF005000000000018000000090000004F
:1011C000FF660600000000000000000000000000B4
:1011D000E7F0050000000000E7F005000000000057
:1011E0001900000009000000086706000000000068
:1011F0000000000000000000F8F005000000000002
:10120000F8F00500000000001A00000009000000CE
:101210001167060000000000000000000000000050
:101220000CF10500000000000CF1050000000000BA
:101230001B000000080000001A6706000000000004
:10124000000000000000000012F105000000000096
:1012500012F10500000000001C0000000900000061
:1012600022670600000000000000000000000000EF
:1012700021F105000000000029F105000000000038
:101280001D000000050000002B67060000000000A4
:10129000000000000000000031F105000000000027
:1012A00039F10500000000001E00000005000000EC
:1012B0003067060000000000000000000000000091
:1012C00041F105000000000049F1050000000000A8
:1012D0001F00000005000000356706000000000048
:1012E000000000000000000051F1050000000000B7
:1012F00059F105000000000020000000050000007A
:101300003A67060000000000000000000000000036
:1013100061F10500000000006AF105000000000016
:10132000210000000000000000000000000000009C
:10133000000000000000000073F105000000000044
:101340007CF1050000000000220000000B000000FE
:101350003F670600000000000000000000000000E1
:1013600085F10500000000008EF10500000000007E
:10137000230000000000000000000000000000004A
:10138000000000000000000097F1050000000000D0
:10139000A0F1050000000000240000000000000093
:1013A000000000000000000000000000000000003D
:1013B000A9F1050000000000B1F1050000000000E7
:1013C00025000000080000004A6706000000000039
:1013D0000000000000000000B9F10500000000005E
:1013E000C1F1050000000000260000000000000020
:1013F00000000000000000000000000000000000ED
:10140000C9F1050000000000D1F105000000000056
:1014100027000000000000000000000000000000A5
:101420000000000000000000D9F1050000000000ED
:10143000E1F10500000000002800000000000000AD
:10144000000000000000000000000000000000009C
:10145000E9F1050000000000EDF1050000000000CA
:10146000290000000500000052670600000000008F
:101470000000000000000000F1F105000000000085
:10148000F9F10500000000002A000000050000003E
:101490005767060000000000000000000000000088
:1014A0000EF20500000000001AF205000000000026
:1014B0002B00000000000000000000000000000001
:1014C000000000000000000026F2050000000000FF
:1014D00033F20500000000002C00000008000000AE
:1014E0005C67060000000000000000000000000033
:1014F00040F205000000000048F205000000000076
:101500002D000000050000006467060000000000D8
:10151000000000000000000050F205000000000084
:1015200059F20500000000002E000000000000003D
:1015300000000000000000000000000000000000AB
:1015400062F205000000000062F2050000000000E9
:101550002F0000000800000069670600000000007E
:10156000000000000000000068F20500000000001C
:1015700068F20500000000003000000009000000D3
:10158000716706000000000000000000000000007D
:1015900075F205000000000075F205000000000073
:1015A00031000000090000007A670600000000001A
:1015B000000000000000000086F2050000000000AE
:1015C00086F2050000000000320000000900000063
:1015D000836706000000000000000000000000001B
:1015E00092F205000000000092F2050000000000E9
:1015F00033000000090000008C67060000000000B6
:101600000000000000000000A0F205000000000043
:10161000A0F20500000000003400000009000000F6
:1016200095670600000000000000000000000000B8
:10163000ACF2050000000000ACF205000000000064
:1016400035000000090000009E6706000000000051
:101650000000000000000000BDF2050000000000D6
:10166000BDF2050000000000360000000900000087
:10167000A767060000000000000000000000000056
:10168000CFF2050000000000CFF2050000000000CE
:101690003700000009000000B067060000000000ED
:1016A0000000000000000000E3F205000000000060
:1016B000E3F205000000000038000000090000000F
:1016C000B9670600000000000000000000000000F4
:1016D00001F30500000000000AF30500000000000F
:1016E0003900000007000000C2670600000000008B
:1016F000000000000000000028F3050000000000CA
:1017000032F30500000000003A000000080000006D
:10171000C967060000000000000000000000000093
:1017200051F30500000000005CF30500000000001C
:101730003B00000008000000D16706000000000028
:1017400000000000000000006FF305000000000032
:101750007BF30500000000003C00000000000000DA
:101760000000000000000000000000000000000079
:1017700087F305000000000094F30500000000005E
:101780003D0000000000000000000000000000001C
:101790000000000000000000A1F3050000000000B0
:1017A000ADF30500000000003E0000000000000056
:1017B0000000000000000000000000000000000029
:1017C000B9F3050000000000C6F3050000000000AA
:1017D0003F000000000000000000000000000000CA
:1017E000000000000000000072EE05000000000094
:1017F000D3F30500000000004000000005000000D9
:10180000D967060000000000000000000000000092
:1018100082EE050000000000D8F305000000000083
:101820004100000009000000DE6706000000000023
:101830000000000000000000EEF3050000000000C2
:10184000F6F3050000000000420000000500000063
:10185000E767060000000000000000000000000034
:1018600001F405000000000009F40500000000007C
:101870004300000005000000EC67060000000000C7
:1018800000000000000000001BF405000000000044
:101890002BF40500000000004400000009000000D7
:1018A000F1670600000000000000000000000000DA
:1018B00041F405000000000041F4050000000000B4
:1018C0004500000009000000FA6706000000000063
:1018D000000000000000000048F4050000000000C7
:1018E00055F405000000000046000000050000005F
:1018F0000368060000000000000000000000000077
:1019000065F405000000000070F405000000000010
:101910004700000009000000086806000000000001
:10192000000000000000000083F40500000000003B
:101930008DF40500000000004800000009000000D0
:101940001168060000000000000000000000000018
:101950009FF4050000000000AFF405000000000047
:1019600049000000090000001A680600000000009D
:101970000000000000000000C7F4050000000000A7
:10198000D9F40500000000004A0000000900000032
:1019900023680600000000000000000000000000B6
:1019A000F4F405000000000001F50500000000004F
:1019B0004B000000090000002C6806000000000039
:1019C000000000000000000016F505000000000007
:1019D00024F50500000000004C0000000900000094
:1019E0003568060000000000000000000000000054
:1019F0003BF50500000000004BF50500000000006D
:101A00004D000000090000003E68060000000000D4
:101A1000000000000000000064F505000000000068
:101A20006EF50500000000004E00000009000000F7
:101A300047680600000000000000000000000000F1
:101A40007FF50500000000008EF505000000000095
:101A50004F00000009000000506806000000000070
:101A60000000000000000000ACF5050000000000D0
:101A7000B5F5050000000000500000000000000067
:101A80000000000000000000000000000000000056
:101A9000BEF5050000000000BEF5050000000000D6
:101AA000510000000200000059680600000000001C
:101AB0000000000000000000C4F505000000000068
:101AC000D9F50500000000005200000003000000EE
:101AD0005B6806000000000000000000000000003D
:101AE000F7F505000000000000F60500000000000A
:101AF00053000000030000005E68060000000000C4
:101B0000000000000000000011F6050000000000C9
:101B100027F605000000000054000000030000004C
:101B200061680600000000000000000000000000E6
:101B300047F605000000000056F605000000000012
:101B4000550000000300000064680600000000006B
:101B5000000000000000000076F605000000000014
:101B600084F605000000000056000000030000009D
:101B70006768060000000000000000000000000090
:101B8000A3F6050000000000B4F605000000000008
:101B900057000000030000006A6806000000000013
:101BA0000000000000000000CDF60500000000006D
:101BB000D7F60500000000005800000003000000F8
:101BC0006D6806000000000000000000000000003A
:101BD000E9F6050000000000FDF605000000000029
:101BE00059000000030000007068060000000000BB
:101BF000000000000000000019F7050000000000D0
:101C000030F70500000000005A000000030000004B
:101C100073680600000000000000000000000000E3
:101C200050F705000000000057F705000000000015
:101C30005B0000000900000076680600000000005C
:101C400000000000000000005EF70500000000003A
:101C500065F70500000000005C00000000000000C7
:101C60000000000000000000000000000000000074
:101C70006CF705000000000073F70500000000008D
:101C80005D000000000000000000000000000000F7
:101C900000000000000000007AF7050000000000CE
:101CA00081F70500000000005E0000000000000059
:101CB0000000000000000000000000000000000024
:101CC00088F70500000000008DF705000000000007
:101CD0005F000000040000007F68060000000000B4
:101CE000000000000000000092F705000000000066
:101CF0009BF70500000000006000000004000000E9
:101D000083680600000000000000000000000000E2
:101D1000A7F7050000000000AEF705000000000076
:101D20006100000000000000000000000000000052
:101D30000000000000000000B5F7050000000000F2
:101D4000C0F7050000000000620000000000000075
:101D50000000000000000000000000000000000083
:101D6000CBF7050000000000CEF7050000000000E2
:101D70006300000003000000876806000000000008
:101D80000000000000000000D8F70500000000007F
:101D9000DBF7050000000000640000000300000005
:101DA0008A6806000000000000000000000000003B
:101DB000E3F7050000000000E3F705000000000065
:101DC00065000000030000008D68060000000000B0
:101DD0000000000000000000000000000000000003
:101DE00000000000000000000000000000000000F3
:101DF00000000000000000000000000000000000E3
:101E0000ECF705000000000002F8050000000000EB
:101E1000670000000300000090680600000000005A
:101E2000000000000000000021F805000000000094
:101E30002CF805000000000068000000050000000C
:101E40009368060000000000000000000000000091
:101E500037F805000000000037F80500000000001A
:101E60006900000003000000986806000000000000
:101E7000000000000000000044F805000000000021
:101E800044F80500000000006A00000003000000A4
:101E90009B68060000000000000000000000000039
:101EA0004AF80500000000004AF8050000000000A4
:101EB0006B000000030000009E68060000000000A8
:101EC000000000000000000056F8050000000000BF
:101ED00060F80500000000006C0000000900000030
:101EE000A1680600000000000000000000000000E3
:101EF0006AF805000000000074F80500000000000A
:101F00006D00000000000000000000000000000064
:101F100000000000000000007EF805000000000046
:101F200088F80500000000006E00000000000000BE
:101F300000000000000000000000000000000000A1
:101F400092F80500000000009CF805000000000069
:101F50006F00000000000000000000000000000012
:101F60000000000000000000A6F8050000000000CE
:101F7000A6F8050000000000700000000900000045
:101F8000AA68060000000000000000000000000039
:101F9000BCF8050000000000C5F8050000000000C6
:101FA0007100000007000000B36806000000000098
:101FB0000000000000000000D1F805000000000053
:101FC000DAF80500000000007200000000000000C8
:101FD0000000000000000000000000000000000001
:101FE00077EE050000000000E3F8050000000000A7
:101FF0007300000005000000BA6806000000000041
:102000000000000000000000EFF8050000000000E4
:10201000F3F8050000000000740000000700000055
:10202000BF68060000000000000000000000000083
:1020300001F90500000000000BF905000000000098
:102040007500000005000000C668060000000000E2
:102050000000000000000000000000000000000080
:102060000000000000000000000000000000000070
:102070000000000000000000000000000000000060
:1020800015F905000000000023F90500000000001C
:102090007700000006000000CB680600000000008A
:1020A000000000000000000034F9050000000000FE
:1020B0003CF9050000000000780000000800000066
:1020C000D1680600000000000000000000000000D1
:1020D00044F90500000000004CF905000000000074
:1020E0007900000000000000000000000000000077
:1020F000000000000000000054F90500000000008E
:102100005CF90500000000007A00000000000000FB
:1021100000000000000000000000000000000000BF
:1021200064F90500000000006CF9050000000000E3
:102130007B00000000000000000000000000000024
:10214000000000000000000074F90500000000001D
:1021500078F90500000000007C0000000600000087
:10216000D968060000000000000000000000000028
:102170008FF905000000000094F905000000000040
:102180007D0000000B000000DF680600000000007A
:102190000000000000000000A5F90500000000009C
:1021A000B6F90500000000007E00000003000000FA
:1021B000EA680600000000000000000000000000C7
:1021C000D0F9050000000000D0F905000000000073
:1021D0007F00000006000000ED680600000000001F
:1021E0000000000000000000D5F90500000000001C
:1021F000D5F9050000000000800000000700000085
:10220000F36806000000000000000000000000006D
:10221000DBF9050000000000E6F905000000000001
:102220008100000008000000FA68060000000000BD
:10223000000000000000000004FA0500000000009B
:102240000FFA0500000000008200000008000000F6
:10225000026906000000000000000000000000000D
:102260002DFA05000000000039FA0500000000000A
:1022700083000000080000000A690600000000005A
:10228000000000000000000046FA05000000000009
:1022900056FA05000000000084000000080000005D
:1022A00012690600000000000000000000000000AD
:1022B00068FA05000000000075FA05000000000043
:1022C00085000000080000001A69060000000000F8
:1022D000000000000000000083FA0500000000007C
:1022E0008DFA050000000000860000000A000000D2
:1022F000226906000000000000000000000000004D
:10230000AFFA050000000000B9FA05000000000067
:10231000870000000A0000002C6906000000000091
:102320000000000000000000DBFA050000000000D3
:10233000E5FA050000000000880000000A00000027
:1023400036690600000000000000000000000000E8
:1023500002FB05000000000008FB05000000000073
:10236000890000000A00000040690600000000002B
:10237000000000000000000026FB05000000000037
:102380002CFB0500000000008A0000000A0000008D
:102390004A69060000000000000000000000000084
:1023A0004CFB05000000000052FB0500000000008F
:1023B0008B000000090000005469060000000000C6
:1023C00000000000000000006FFB0500000000009E
:1023D00078FB0500000000008C00000003000000F6
:1023E0005D69060000000000000000000000000021
:1023F00093FB0500000000009DFB050000000000AD
:102400008D0000000300000060690600000000006D
:102410000000000000000000B4FB05000000000008
:10242000C3FB0500000000008E0000000300000058
:1024300063690600000000000000000000000000CA
:10244000D3FB050000000000DBFB050000000000DE
:102450008F00000005000000666906000000000013
:102460000000000000000000EEFB0500000000007E
:10247000FFFB050000000000900000000A000000C3
:102480006B69060000000000000000000000000072
:1024900017FC05000000000027FC050000000000FC
:1024A000910000000A0000007569060000000000AD
:1024B00000000000000000003EFC050000000000DD
:1024C0004CFC050000000000920000000A00000023
:1024D0007F6906000000000000000000000000000E
:1024E0006DFC0500000000007BFC05000000000002
:1024F000930000000A000000896906000000000047
:1025000000000000000000009CFC0500000000002E
:10251000ADFC050000000000940000000A0000006F
:1025200093690600000000000000000000000000A9
:10253000C9FC050000000000D9FC050000000000F7
:10254000950000000A0000009D69060000000000E0
:102550000000000000000000F4FC05000000000086
:10256000F4FC050000000000960000000B000000D5
:10257000A769060000000000000000000000000045
:10258000FBFC050000000000FBFC05000000000053
:10259000970000000B000000B26906000000000078
:1025A00000000000000000000FFD0500000000001A
:1025B0000FFD050000000000980000000B00000067
:1025C000BD690600000000000000000000000000DF
:1025D00017FD05000000000017FD050000000000C9
:1025E000990000000B000000C86906000000000010
:1025F00000000000000000001EFD050000000000BB
:102600001EFD0500000000009A0000000B00000005
:10261000D369060000000000000000000000000078
:1026200028FD05000000000028FD05000000000056
:102630009B0000000B000000DE69060000000000A7
:10264000000000000000000038FD05000000000050
:1026500038FD0500000000009C000000090000009B
:10266000E969060000000000000000000000000012
:1026700045FD05000000000045FD050000000000CC
:102680009D00000009000000F26906000000000043
:10269000000000000000000050FD050000000000E8
:1026A00050FD0500000000009E0000000A00000030
:1026B000FB690600000000000000000000000000B0
:1026C00060FD05000000000060FD05000000000046
:1026D0009F0000000A000000056A060000000000DC
:1026E000000000000000000070FD05000000000078
:1026F00070FD050000000000A00000000A000000BE
:102700000F6A06000000000000000000000000004A
:1027100078FD05000000000078FD050000000000C5
:10272000A100000009000000196A06000000000076
:1027300000000000000000007EFD05000000000019
:102740007EFD050000000000A2000000090000005E
:10275000226A0600000000000000000000000000E7
:1027600085FD05000000000085FD0500000000005B
:10277000A3000000080000002B6A06000000000013
:10278000000000000000000092FD050000000000B5
:102790009CFD050000000000A400000008000000EF
:1027A000336A060000000000000000000000000086
:1027B000B1FD050000000000BFFD050000000000A5
:1027C000A5000000080000003B6A060000000000B1
:1027D0000000000000000000DCFD0500000000001B
:1027E000E7FD050000000000A6000000000000005A
:1027F00000000000000000000000000000000000D9
:10280000F2FD050000000000FDFD050000000000D5
:10281000A700000009000000436A06000000000055
:10282000000000000000000011FE05000000000094
:1028300020FE050000000000A800000009000000C4
:102840004C6A0600000000000000000000000000CC
:1028500035FE05000000000044FE050000000000F9
:10286000A900000009000000556A060000000000F1
:10287000000000000000000059FE050000000000FC
:1028800066FE050000000000AA000000090000002C
:102890005E6A06000000000000000000000000006A
:1028A0007CFE05000000000085FE05000000000021
:1028B000AB0000000A000000676A0600000000008C
:1028C0000000000000000000A1FE05000000000064
:1028D000A8FE050000000000AC0000000900000098
:1028E000716A060000000000000000000000000007
:1028F000BAFE050000000000BAFE0500000000005E
:10290000AD000000030000007A6A0600000000002D
:102910000000000000000000BFFE050000000000F5
:10292000BFFE050000000000AE0000000300000034
:102930007D6A0600000000000000000000000000AA
:10294000CBFE050000000000CBFE050000000000EB
:10295000AF00000007000000806A060000000000D1
:102960000000000000000000D1FE05000000000093
:10297000D1FE050000000000B000000007000000CC
:10298000876A060000000000000000000000000050
:10299000D7FE050000000000EBFE0500000000006F
:1029A000B1000000080000008E6A06000000000070
:1029B000000000000000000008FF0500000000000B
:1029C00008FF050000000000B20000000800000041
:1029D000966A0600000000000000000000000000F1
:1029E0000DFF05000000000017FF050000000000BB
:1029F000B3000000080000009E6A0600000000000E
:102A0000000000000000000022FF050000000000A0
:102A10002EFF050000000000B400000008000000C8
:102A2000A66A060000000000000000000000000090
:102A30003BFF0500000000003FFF05000000000014
:102A4000B500000001000000AE6A060000000000B2
:102A5000000000000000000043FF0500000000002F
:102A60004FFF050000000000B6000000010000005C
:102A7000AF6A060000000000000000000000000037
:102A80005FFF05000000000066FF05000000000079
:102A9000B700000003000000B06A0600000000005C
:102AA000000000000000000079FF050000000000A9
:102AB0007FFF050000000000B800000005000000D6
:102AC000B36A0600000000000000000000000000E3
:102AD00085FF0500000000008AFF050000000000DF
:102AE000B900000006000000B86A060000000000FF
:102AF000000000000000000095FF0500000000003D
:102B000095FF050000000000BA000000080000006A
:102B1000BE6A060000000000000000000000000087
:102B20009BFF0500000000009BFF05000000000067
:102B3000BB00000008000000C66A0600000000009C
:102B40000000000000000000A1FF050000000000E0
:102B5000A7FF050000000000BC0000000900000005
:102B6000CE6A060000000000000000000000000027
:102B7000AEFF050000000000AEFF050000000000F1
:102B8000BD0000000A000000D76A06000000000037
:102B90000000000000000000BBFF05000000000076
:102BA000BBFF050000000000BE0000000A0000009E
:102BB000E16A0600000000000000000000000000C4
:102BC000C7FF050000000000C7FF0500000000006F
:102BD000BF0000000A000000EB6A060000000000D1
:102BE0000000000000000000D3FF0500000000000E
:102BF000D3FF050000000000C00000000A00000034
:102C0000F56A06000000000000000000000000005F
:102C1000E0FF050000000000E0FF050000000000EC
:102C2000C10000000A000000FF6A0600000000006A
:102C30000000000000000000ECFF050000000000A4
:102C4000ECFF050000000000C20000000A000000C8
:102C5000096B0600000000000000000000000000FA
:102C6000F9FF050000000000F9FF0500000000006A
:102C7000C30000000A000000136B06000000000003
:102C80000000000000000000060006000000000038
:102C90000600060000000000C40000000B00000059
:102CA0001D6B060000000000000000000000000096
:102CB00017000600000000001700060000000000DA
:102CC000C50000000B000000286B0600000000009B
:102CD00000000000000000002800060000000000C6
:102CE0002800060000000000C60000000B000000E5
:102CF000336B060000000000000000000000000030
:102D00003900060000000000390006000000000045
:102D1000C70000000B0000003E6B06000000000032
:102D200000000000000000004D0006000000000050
:102D30004D00060000000000C80000000B0000006D
:102D4000496B0600000000000000000000000000C9
:102D50006C000600000000006C000600000000008F
:102D6000C90000000B000000546B060000000000CA
:102D700000000000000000008B00060000000000C2
:102D80008B00060000000000CA0000000B000000DD
:102D90005F6B060000000000000000000000000063
:102DA000AA00060000000000AA00060000000000C3
:102DB000CB0000000B0000006A6B06000000000062
:102DC0000000000000000000C90006000000000034
:102DD000C900060000000000CC0000000B0000004D
:102DE000756B0600000000000000000000000000FD
:102DF000DD00060000000000DD000600000000000D
:102E0000CD0000000B000000806B060000000000F9
:102E10000000000000000000F200060000000000BA
:102E2000F200060000000000CE0000000B000000D1
:102E30008B6B060000000000000000000000000096
:102E40000A010600000000000A0106000000000060
:102E5000CF0000000B000000966B06000000000091
:102E600000000000000000001E010600000000003D
:102E70001E01060000000000D00000000B00000052
:102E8000A16B060000000000000000000000000030
:102E900032010600000000003201060000000000C0
:102EA000D10000000B000000AC6B06000000000029
:102EB00000000000000000004A01060000000000C1
:102EC0004A01060000000000D20000000B000000D4
:102ED000B76B0600000000000000000000000000CA
:102EE0006601060000000000660106000000000008
:102EF000D30000000B000000C26B060000000000C1
:102F00000000000000000000830106000000000037
:102F10008301060000000000D40000000B00000048
:102F2000CD6B060000000000000000000000000063
:102F30009E010600000000009E0106000000000047
:102F4000D50000000B000000D86B06000000000058
:102F50000000000000000000B801060000000000B2
:102F6000B801060000000000D60000000B000000C1
:102F7000E36B0600000000000000000000000000FD
:102F8000D401060000000000D4010600000000008B
:102F9000D70000000B000000EE6B060000000000F0
:102FA0000000000000000000EC010600000000002E
:102FB000EC01060000000000D80000000B0000003B
:102FC000F96B060000000000000000000000000097
:102FD00005020600000000000502060000000000D7
:102FE000D90000000B000000046C06000000000087
:102FF00000000000000000002202060000000000A7
:103000002202060000000000DA0000000B000000B1
:103010000F6C06000000000000000000000000002F
:103020004002060000000000400206000000000010
:10303000DB0000000B0000001A6C0600000000001E
:103040000000000000000000550206000000000023
:103050005502060000000000DC0000000B0000002C
:10306000256C0600000000000000000000000000C9
:10307000720206000000000072020600000000005C
:10308000DD0000000B000000306C060000000000B6
:1030900000000000000000008F0206000000000099
:1030A0008F02060000000000DE0000000B000000A0
:1030B0003B6C060000000000000000000000000063
:1030C000A902060000000000A9020600000000009E
:1030D000DF0000000B000000466C0600000000004E
:1030E0000000000000000000C80206000000000010
:1030F000C802060000000000E00000000B00000015
:10310000516C0600000000000000000000000000FC
:10311000E602060000000000E602060000000000D3
:10312000E10000000B0000005C6C060000000000E5
:103130000000000000000000010306000000000085
:103140000103060000000000E20000000B00000088
:10315000676C060000000000000000000000000096
:103160001D030600000000001D0306000000000013
:10317000E30000000B000000726C0600000000007D
:1031800000000000000000003C03060000000000FA
:103190003C03060000000000E40000000B000000FB
:1031A0007D6C060000000000000000000000000030
:1031B0005B030600000000005B0306000000000047
:1031C000E50000000B000000886C06000000000015
:1031D0000000000000000000760306000000000070
:1031E0007603060000000000E60000000B0000006F
:1031F000936C0600000000000000000000000000CA
:103200009303060000000000930306000000000086
:10321000E70000000B0000009E6C060000000000AC
:103220000000000000000000B403060000000000E1
:10323000B403060000000000E80000000B000000DE
:10324000A96C060000000000000000000000000063
:10325000D403060000000000D403060000000000B4
:10326000E90000000B000000B46C06000000000044
:103270000000000000000000F30306000000000052
:10328000F303060000000000EA0000000B0000004D
:10329000BF6C0600000000000000000000000000FD
:1032A0000E040600000000000E04060000000000EE
:1032B000EB0000000B000000CA6C060000000000DC
:1032C00000000000000000002F04060000000000C5
:1032D0002F04060000000000EC0000000B000000BE
:1032E000D56C060000000000000000000000000097
:1032F0004C040600000000004C0406000000000022
:10330000ED0000000B000000E06C06000000000073
:1033100000000000000000006D0406000000000036
:103320006D04060000000000EE0000000B0000002D
:10333000EB6C060000000000000000000000000030
:103340008E040600000000008E040600000000004D
:10335000EF0000000B000000F66C0600000000000B
:103360000000000000000000A804060000000000AB
:10337000A804060000000000F00000000B000000A0
:10338000016D0600000000000000000000000000C9
:10339000BD04060000000000BD040600000000009F
:1033A000F10000000B0000000C6D060000000000A2
:1033B0000000000000000000D7040600000000002C
:1033C000D704060000000000F20000000B0000001F
:1033D000176D060000000000000000000000000063
:1033E000F004060000000000F004060000000000E9
:1033F000F30000000B000000226D0600000000003A
:1034000000000000000000000605060000000000AB
:103410000605060000000000F40000000B0000009C
:103420002D6D0600000000000000000000000000FC
:103430001B050600000000001B0506000000000040
:10344000F50000000B000000386D060000000000D1
:1034500000000000000000002D0506000000000034
:103460002D05060000000000F60000000B00000023
:10347000436D060000000000000000000000000096
:10348000460506000000000046050600000000009A
:10349000F70000000B0000004E6D06000000000069
:1034A00000000000000000005E05060000000000B3
:1034B0005E05060000000000F80000000B000000A0
:1034C000596D060000000000000000000000000030
:1034D0006F050600000000006F05060000000000F8
:1034E000F90000000B000000646D06000000000001
:1034F0000000000000000000880506000000000039
:103500008805060000000000FA0000000B00000023
:103510006F6D0600000000000000000000000000C9
:10352000A505060000000000A5050600000000003B
:10353000FB0000000B0000007A6D06000000000098
:103540000000000000000000C405060000000000AC
:10355000C405060000000000FC0000000B00000095
:10356000856D060000000000000000000000000063
:10357000E405060000000000E4050600000000006D
:10358000FD0000000B000000906D06000000000030
:10359000000000000000000005060600000000001A
:1035A0000506060000000000FE0000000B00000001
:1035B0009B6D0600000000000000000000000000FD
:1035C000240606000000000024060600000000009B
:1035D000FF0000000B000000A66D060000000000C8
:1035E000000000000000000045060600000000008A
:1035F0004506060000000000000100000B0000006E
:10360000B16D060000000000000000000000000096
:1036100066060600000000006A06060000000000C2
:103620000101000008000000BC6D06000000000061
:1036300000000000000000006E0606000000000010
:103640006E060600000000000201000007000000F6
:10365000C46D060000000000000000000000000033
:103660007A060600000000007A060600000000004E
:103670000301000007000000CB6D06000000000001
:1036800000000000000000008006060000000000AE
:103690008006060000000000040100000700000092
:1036A000D26D0600000000000000000000000000D5
:1036B00086060600000000008606060000000000E6
:1036C0000501000007000000D96D060000000000A1
:1036D00000000000000000008E0606000000000050
:1036E0008E06060000000000060100000700000032
:1036F000E06D060000000000000000000000000077
:103700009506060000000000950606000000000077
:103710000701000007000000E76D06000000000040
:1037200000000000000000009C06060000000000F1
:103730009C060600000000000801000007000000D1
:10374000EE6D060000000000000000000000000018
:10375000A206060000000000A2060600000000000D
:103760000901000007000000F56D060000000000E0
:103770000000000000000000A90606000000000094
:10378000A9060600000000000A0100000700000072
:10379000FC6D0600000000000000000000000000BA
:1037A000B006060000000000B006060000000000A1
:1037B0000B01000007000000036E0600000000007F
:1037C0000000000000000000B70606000000000036
:1037D000B7060600000000000C0100000700000012
:1037E0000A6E06000000000000000000000000005B
:1037F000BE06060000000000BE0606000000000035
:103800000D01000008000000116E0600000000001D
:103810000000000000000000D306060000000000C9
:10382000D3060600000000000E01000008000000A2
:10383000196E0600000000000000000000000000FB
:10384000E806060000000000E80606000000000090
:103850000F01000008000000216E060000000000BB
:103860000000000000000000FD060600000000004F
:10387000FD06060000000000100100000800000026
:10388000296E06000000000000000000000000009B
:1038900012070600000000001207060000000000EA
:1038A0001101000008000000316E06000000000059
:1038B00000000000000000001E07060000000000DD
:1038C0001E070600000000001201000008000000B2
:1038D000396E06000000000000000000000000003B
:1038E000290706000000000029070600000000006C
:1038F0001301000008000000416E060000000000F7
:1039000000000000000000003F070600000000006B
:103910003F0706000000000014010000080000003E
:10392000496E0600000000000000000000000000DA
:1039300055070600000000005507060000000000C3
:103940001501000008000000516E06000000000094
:1039500000000000000000006007060000000000FA
:1039600060070600000000001601000008000000CB
:10397000596E06000000000000000000000000007A
:10398000790706000000000079070600000000002B
:103990001701000008000000616E06000000000032
:1039A0000000000000000000920706000000000078
:1039B0009207060000000000180100000800000047
:1039C000696E06000000000000000000000000001A
:1039D000A807060000000000A8070600000000007D
:1039E0001901000008000000716E060000000000D0
:1039F0000000000000000000C207060000000000F8
:103A0000C2070600000000001A01000008000000C4
:103A1000796E0600000000000000000000000000B9
:103A2000CE07060000000000CE07060000000000E0
:103A30001B01000008000000816E0600000000006D
:103A40000000000000000000DA070600000000008F
:103A5000DA070600000000001C010000080000005A
:103A6000896E060000000000000000000000000059
:103A7000E907060000000000F7070600000000004C
:103A80001D01000008000000916E0600000000000B
:103A90000000000000000000060806000000000012
:103AA00006080600000000001E01000008000000DB
:103AB000996E0600000000000000000000000000F9
:103AC00013080600000000001308060000000000B4
:103AD0001F01000008000000A16E060000000000A9
:103AE00000000000000000002208060000000000A6
:103AF000220806000000000020010000080000006D
:103B0000A96E060000000000000000000000000098
:103B10002F080600000000002F080600000000002B
:103B20002101000008000000B16E06000000000046
:103B300000000000000000003A080600000000003D
:103B40003A08060000000000220100000800000002
:103B5000B96E060000000000000000000000000038
:103B60004B080600000000004B08060000000000A3
:103B70002301000008000000C16E060000000000E4
:103B800000000000000000006108060000000000C6
:103B90006108060000000000240100000800000089
:103BA000C96E0600000000000000000000000000D8
:103BB00077080600000000007708060000000000FB
:103BC0002501000008000000D16E06000000000082
:103BD0000000000000000000820806000000000055
:103BE0009108060000000000260100000800000007
:103BF000D96E060000000000000000000000000078
:103C0000A208060000000000AE0806000000000048
:103C10002701000008000000E16E0600000000001F
:103C20000000000000000000BB08060000000000CB
:103C3000C508060000000000280100000800000080
:103C4000E96E060000000000000000000000000017
:103C5000D008060000000000D508060000000000A3
:103C60002901000008000000F16E060000000000BD
:103C70000000000000000000DA080600000000005C
:103C8000DA080600000000002A0100000800000019
:103C9000F96E0600000000000000000000000000B7
:103CA000EE08060000000000EE080600000000001C
:103CB0002B01000008000000016F0600000000005A
:103CC00000000000000000000509060000000000E0
:103CD00005090600000000002C010000080000009B
:103CE000096F060000000000000000000000000056
:103CF0001B090600000000001B0906000000000070
:103D00002D01000008000000116F060000000000F7
:103D10000000000000000000320906000000000062
:103D200032090600000000002E010000080000001B
:103D3000196F0600000000000000000000000000F5
:103D400048090600000000004809060000000000C5
:103D50002F01000008000000216F06000000000095
:103D600000000000000000005909060000000000EB
:103D700059090600000000003001000008000000A2
:103D8000296F060000000000000000000000000095
:103D90006F090600000000006F0906000000000027
:103DA0003101000008000000316F06000000000033
:103DB000000000000000000089090600000000006B
:103DC0008909060000000000320100000800000020
:103DD000396F060000000000000000000000000035
:103DE000A409060000000000A4090600000000006D
:103DF0003301000008000000416F060000000000D1
:103E00000000000000000000BA09060000000000E9
:103E1000BA0906000000000034010000080000009C
:103E2000496F0600000000000000000000000000D4
:103E3000D009060000000000D009060000000000C4
:103E40003501000008000000516F0600000000006E
:103E50000000000000000000E4090600000000006F
:103E6000E409060000000000360100000800000020
:103E7000596F060000000000000000000000000074
:103E8000FA09060000000000FA0906000000000020
:103E90003701000008000000616F0600000000000C
:103EA0000000000000000000100A060000000000F2
:103EB000100A0600000000003801000008000000A1
:103EC000696F060000000000000000000000000014
:103ED000250A060000000000250A06000000000078
:103EE0003901000008000000716F060000000000AA
:103EF0000000000000000000300A06000000000082
:103F0000300A0600000000003A010000080000002E
:103F1000796F0600000000000000000000000000B3
:103F20003B0A0600000000003B0A060000000000FB
:103F30003B01000009000000816F06000000000046
:103F400000000000000000004F0A06000000000012
:103F50004F0A0600000000003C01000009000000BC
:103F60008A6F060000000000000000000000000052
:103F7000680A060000000000680A06000000000051
:103F80003D01000009000000936F060000000000E2
:103F90000000000000000000860A0600000000008B
:103FA000860A0600000000003E0100000900000033
:103FB0009C6F0600000000000000000000000000F0
:103FC000A30A060000000000A30A0600000000008B
:103FD0003F01000009000000A56F0600000000007E
:103FE0000000000000000000B80A06000000000009
:103FF000B80A0600000000004001000009000000AF
:10400000AE6F06000000000000000000000000008D
:10401000D30A060000000000D30A060000000000DA
:104020004101000009000000B76F06000000000019
:104030000000000000000000E80A06000000000088
:10404000E80A06000000000042010000090000002C
:10405000C06F06000000000000000000000000002B
:10406000FB0A060000000000FB0A0600000000003A
:104070004301000008000000C96F060000000000B6
:104080000000000000000000080B06000000000017
:10409000080B0600000000004401000008000000BA
:1040A000D16F0600000000000000000000000000CA
:1040B0001B0B0600000000001B0B060000000000A8
:1040C0004501000008000000D96F06000000000054
:1040D0000000000000000000330B0600000000009C
:1040E000330B06000000000046010000080000003D
:1040F000E16F06000000000000000000000000006A
:10410000410B060000000000410B0600000000000B
:104110004701000008000000E96F060000000000F1
:104120000000000000000000530B0600000000002B
:10413000530B0600000000004801000008000000CA
:10414000F16F060000000000000000000000000009
:10415000690B060000000000690B0600000000006B
:104160004901000008000000F96F0600000000008F
:1041700000000000000000007E0B060000000000B0
:104180007E0B0600000000004A010000080000004D
:1041900001700600000000000000000000000000A8
:1041A000900B060000000000900B060000000000CD
:1041B0004B0100000800000009700600000000002C
:1041C0000000000000000000A50B06000000000039
:1041D000A50B0600000000004C01000008000000D4
:1041E0001170060000000000000000000000000048
:1041F000B80B060000000000B80B0600000000002D
:104200004D010000080000001970060000000000C9
:104210000000000000000000CE0B060000000000BF
:10422000CE0B0600000000004E0100000800000058
:1042300021700600000000000000000000000000E7
:10424000E30B060000000000E30B06000000000086
:104250004F01000008000000297006000000000067
:104260000000000000000000F70B06000000000046
:10427000F70B0600000000005001000008000000DD
:104280003170060000000000000000000000000087
:104290000B0C0600000000000B0C060000000000E4
:1042A0005101000008000000397006000000000005
:1042B0000000000000000000200C060000000000CC
:1042C000200C060000000000520100000800000061
:1042D0004170060000000000000000000000000027
:1042E0002F0C0600000000002F0C0600000000004C
:1042F00053010000080000004970060000000000A3
:1043000000000000000000003D0C0600000000005E
:104310003D0C0600000000005401000008000000F1
:1043200051700600000000000000000000000000C6
:10433000520C060000000000520C060000000000B5
:104340005501000008000000597006000000000040
:104350000000000000000000610C060000000000EA
:10436000610C06000000000056010000080000007B
:104370006170060000000000000000000000000066
:10438000750C060000000000750C0600000000001F
:1043900057010000080000006970060000000000DE
:1043A0000000000000000000890C06000000000072
:1043B000890C060000000000580100000800000001
:1043C0007170060000000000000000000000000006
:1043D0009E0C0600000000009E0C0600000000007D
:1043E000590100000800000079700600000000007C
:1043F0000000000000000000B40C060000000000F7
:10440000B40C0600000000005A0100000800000083
:1044100081700600000000000000000000000000A5
:10442000D10C060000000000D10C060000000000C6
:104430005B01000008000000897006000000000019
:104440000000000000000000E40C06000000000076
:10445000E40C0600000000005C0100000800000001
:104460009170060000000000000000000000000045
:10447000F70C060000000000F70C0600000000002A
:104480005D010000080000009970060000000000B7
:10449000000000000000000000000000000000001C
:1044A000000000000000000000000000000000000C
:1044B00000000000000000000000000000000000FC
:1044C0000B0D0600000000000B0D060000000000B0
:1044D0005F01000008000000A1700600000000005D
:1044E0000000000000000000190D060000000000A0
:1044F000190D060000000000600100000800000027
:10450000A97006000000000000000000000000008C
:10451000350D060000000000350D0600000000000B
:104520006101000008000000B170060000000000FA
:1045300000000000000000004F0D06000000000019
:104540004F0D06000000000062010000080000009E
:10455000B97006000000000000000000000000002C
:10456000690D060000000000690D06000000000053
:104570006301000008000000C17006000000000098
:1045800000000000000000007F0D06000000000099
:104590007F0D06000000000064010000080000001C
:1045A000C9700600000000000000000000000000CC
:1045B000970D060000000000970D060000000000A7
:1045C0006501000008000000D17006000000000036
:1045D0000000000000000000A40D06000000000024
:1045E000A40D0600000000006601000008000000A5
:1045F000D97006000000000000000000000000006C
:10460000B00D060000000000B00D06000000000024
:104610006701000008000000E170060000000000D3
:104620000000000000000000C70D060000000000B0
:10463000C70D06000000000068010000080000002F
:10464000E97006000000000000000000000000000B
:10465000D20D060000000000D20D06000000000090
:104660006901000008000000F17006000000000071
:104670000000000000000000E10D06000000000046
:10468000E10D0600000000006A01000008000000C3
:10469000F9700600000000000000000000000000AB
:1046A000F40D060000000000040E060000000000EB
:1046B0006B0100000800000001710600000000000E
:1046C0000000000000000000150E060000000000C1
:1046D0001D0E0600000000006C0100000800000034
:1046E000097106000000000000000000000000004A
:1046F000250E060000000000370E06000000000036
:104700006D010000090000001171060000000000AA
:1047100000000000000000004B0E0600000000003A
:10472000510E0600000000006E01000009000000AC
:104730001A710600000000000000000000000000E8
:104740005C0E060000000000620E06000000000083
:104750006F01000009000000237106000000000046
:1047600000000000000000006E0E060000000000C7
:10477000820E060000000000700100000900000029
:104780002C71060000000000000000000000000086
:104790009C0E060000000000A40E060000000000B1
:1047A00071010000090000003571060000000000E2
:1047B0000000000000000000B20E06000000000033
:1047C000C00E060000000000720100000900000099
:1047D0003E71060000000000000000000000000024
:1047E000D40E060000000000E30E060000000000EA
:1047F000730100000900000047710600000000007E
:104800000000000000000000F80E0600000000009C
:10481000070F0600000000007401000009000000FE
:1048200050710600000000000000000000000000C1
:104830001C0F0600000000001C0F06000000000016
:104840007501000009000000597106000000000019
:104850000000000000000000220F06000000000021
:10486000220F060000000000760100000900000091
:10487000627106000000000000000000000000005F
:10488000270F060000000000310F060000000000A6
:1048900077010000090000006B71060000000000B5
:1048A00000000000000000003C0F060000000000B7
:1048B0003C0F06000000000078010000040000002A
:1048C00074710600000000000000000000000000FD
:1048D000460F060000000000460F06000000000022
:1048E000790100000500000078710600000000005A
:1048F0000000000000000000530F06000000000050
:10490000620F0600000000007A01000002000000B3
:104910007D710600000000000000000000000000A3
:10492000820F060000000000860F06000000000055
:104930007B010000010000007F7106000000000004
:1049400000000000000000008A0F060000000000C8
:104950008E0F0600000000007C0100000200000035
:104960008071060000000000000000000000000050
:10497000920F060000000000970F060000000000E4
:104980007D010000030000008271060000000000AD
:1049900000000000000000009C0F06000000000066
:1049A000A60F0600000000007E01000004000000C9
:1049B00085710600000000000000000000000000FB
:1049C000B00F060000000000B50F06000000000058
:1049D0007F01000004000000897106000000000053
:1049E0000000000000000000C00F060000000000F2
:1049F000CD0F060000000000800100000400000050
:104A00008D710600000000000000000000000000A2
:104A1000DA0F060000000000E20F060000000000B0
:104A200081010000040000009171060000000000F8
:104A30000000000000000000EA0F06000000000077
:104A4000F30F0600000000008201000004000000D7
:104A5000957106000000000000000000000000004A
:104A6000FC0F06000000000003100600000000001C
:104A7000830100000400000099710600000000009E
:104A800000000000000000000A1006000000000006
:104A90000A1006000000000084010000040000006D
:104AA0009D710600000000000000000000000000F2
:104AB0000F100600000000001B10060000000000A0
:104AC0008501000005000000A17106000000000043
:104AD0000000000000000000271006000000000099
:104AE00030100600000000008601000009000000F0
:104AF000A671060000000000000000000000000099
:104B000039100600000000003C1006000000000004
:104B1000870100000A000000AF71060000000000DD
:104B200000000000000000004C1006000000000023
:104B30005310060000000000880100000A00000079
:104B4000B971060000000000000000000000000035
:104B50005A100600000000005A1006000000000075
:104B60008901000001000000C37106000000000080
:104B700000000000000000005F10060000000000C0
:104B800078100600000000008A0100000300000009
:104B9000C4710600000000000000000000000000DA
:104BA00091100600000000009110060000000000B7
:104BB0008B01000004000000C77106000000000027
:104BC00000000000000000009B1006000000000034
:104BD000A3100600000000008C0100000900000086
:104BE000CB71060000000000000000000000000083
:104BF000B810060000000000B81006000000000019
:104C00008D01000008000000D471060000000000C3
:104C10000000000000000000C410060000000000BA
:104C2000D6100600000000008E0100000800000001
:104C3000DC71060000000000000000000000000021
:104C4000F110060000000000F11006000000000056
:104C50008F01000008000000E47106000000000061
:104C6000000000000000000001110600000000002C
:104C70000111060000000000900100000300000088
:104C8000EC710600000000000000000000000000C1
:104C900006110600000000001811060000000000C8
:104CA0009101000003000000EF7106000000000009
:104CB00000000000000000003211060000000000AB
:104CC00044110600000000009201000003000000F3
:104CD000F27106000000000000000000000000006B
:104CE00058110600000000006311060000000000DB
:104CF0009301000003000000F571060000000000B1
:104D000000000000000000005A1006000000000033
:104D10005A1006000000000094010000010000008D
:104D2000F871060000000000000000000000000014
:104D300082110600000000008D1106000000000036
:104D40009501000005000000F97106000000000058
:104D500000000000000000009811060000000000A4
:104D600098110600000000009601000007000000F6
:104D7000FE710600000000000000000000000000BE
:104D8000A411060000000000A411060000000000AD
:104D900097010000070000000572060000000000F7
:104DA0000000000000000000BD110600000000002F
:104DB000BD1106000000000098010000070000007F
:104DC0000C7206000000000000000000000000005F
:104DD000CC11060000000000CC110600000000000D
:104DE0009901000008000000137206000000000096
:104DF0000000000000000000D711060000000000C5
:104E0000D7110600000000009A0100000800000011
:104E10001B720600000000000000000000000000FF
:104E2000E211060000000000E21106000000000090
:104E30009B01000008000000237206000000000033
:104E40000000000000000000ED110600000000005E
:104E5000ED110600000000009C01000008000000A9
:104E60002B7206000000000000000000000000009F
:104E7000F811060000000000F81106000000000014
:104E80009D010000080000003372060000000000D1
:104E900000000000000000000312060000000000F7
:104EA00003120600000000009E0100000800000040
:104EB0003B7206000000000000000000000000003F
:104EC0000E120600000000000E1206000000000096
:104ED0009F0100000800000043720600000000006F
:104EE0000000000000000000191206000000000091
:104EF0001912060000000000A001000007000000D9
:104F00004B720600000000000000000000000000DE
:104F10002912060000000000311206000000000007
:104F2000A10100000900000052720600000000000C
:104F30000000000000000000441206000000000015
:104F40005012060000000000A2010000090000004D
:104F50005B7206000000000000000000000000007E
:104F60005C1206000000000068120600000000004D
:104F7000A3010000090000006472060000000000A8
:104F80000000000000000000741206000000000095
:104F90008012060000000000A401000009000000CB
:104FA0006D7206000000000000000000000000001C
:104FB0008C1206000000000098120600000000009D
:104FC000A501000009000000767206000000000044
:104FD0000000000000000000A41206000000000015
:104FE000B012060000000000A60100000900000049
:104FF0007F720600000000000000000000000000BA
:10500000BC12060000000000C812060000000000EC
:10501000A7010000090000008872060000000000DF
:105020000000000000000000D41206000000000094
:10503000E012060000000000A801000009000000C6
:105040009172060000000000000000000000000057
:10505000EC12060000000000F8120600000000003C
:10506000A9010000090000009A720600000000007B
:105070000000000000000000041306000000000013
:105080001013060000000000AA0100000900000043
:10509000A3720600000000000000000000000000F5
:1050A0001C1306000000000028130600000000008A
:1050B000AB01000009000000AC7206000000000017
:1050C0000000000000000000341306000000000093
:1050D0004013060000000000AC01000009000000C1
:1050E000B572060000000000000000000000000093
:1050F0004C130600000000005813060000000000DA
:10510000AD01000009000000BE72060000000000B2
:105110000000000000000000641306000000000012
:105120007813060000000000AE010000030000003C
:10513000C772060000000000000000000000000030
:105140008E13060000000000A213060000000000FD
:10515000AF01000007000000CA7206000000000056
:105160000000000000000000B8130600000000006E
:10517000D213060000000000B0010000070000008C
:10518000D1720600000000000000000000000000D6
:10519000EF130600000000000514060000000000E8
:1051A000B101000007000000D872060000000000F6
:1051B00000000000000000001D14060000000000B8
:1051C0001D14060000000000B201000001000000F4
:1051D000DF72060000000000000000000000000078
:1051E0002214060000000000221406000000000047
:1051F000B301000003000000E072060000000000A0
:10520000000000000000000026140600000000005E
:105210002614060000000000B40100000700000092
:10522000E372060000000000000000000000000023
:105230002A140600000000002A14060000000000E6
:10524000B501000008000000EA720600000000003E
:105250000000000000000000301406000000000004
:105260003014060000000000B60100000900000034
:10527000F2720600000000000000000000000000C4
:105280004314060000000000431406000000000064
:10529000B701000009000000FB72060000000000DA
:1052A000000000000000000058140600000000008C
:1052B0005814060000000000B801000009000000BA
:1052C0000473060000000000000000000000000061
:1052D00069140600000000006914060000000000C8
:1052E000B9010000090000000D7306000000000075
:1052F000000000000000000075140600000000001F
:105300007514060000000000BA0100000A00000049
:1053100016730600000000000000000000000000FE
:10532000851406000000000085140600000000003F
:10533000BB0100000A00000020730600000000000E
:1053400000000000000000009F14060000000000A4
:105350009F14060000000000BC0100000A000000CD
:105360002A7306000000000000000000000000009A
:10537000AB14060000000000AB14060000000000A3
:10538000BD0100000A0000003473060000000000A8
:105390000000000000000000B7140600000000003C
:1053A000B714060000000000BE0100000A00000063
:1053B0003E73060000000000000000000000000036
:1053C000BF14060000000000BF140600000000002B
:1053D000BF0100000A000000487306000000000042
:1053E0000000000000000000C814060000000000DB
:1053F000C814060000000000C00100000A00000000
:1054000052730600000000000000000000000000D1
:10541000CD14060000000000CD14060000000000BE
:10542000C10100000A0000005C73060000000000DB
:105430000000000000000000DC1406000000000076
:10544000DC14060000000000C20100000A00000099
:10545000667306000000000000000000000000006D
:10546000EC14060000000000EC1406000000000030
:10547000C30100000A000000707306000000000075
:105480000000000000000000F6140600000000000C
:10549000F614060000000000C40100000A0000002D
:1054A0007A73060000000000000000000000000009
:1054B0000A150600000000000A15060000000000A2
:1054C000C50100000A00000084730600000000000F
:1054D00000000000000000001A1506000000000097
:1054E0001A15060000000000C60100000A000000B6
:1054F0008E730600000000000000000000000000A5
:105500002F150600000000002F1506000000000007
:10551000C70100000A0000009873060000000000A8
:10552000000000000000000041150600000000001F
:105530004115060000000000C80100000A0000003C
:10554000A273060000000000000000000000000040
:105550004A150600000000004A1506000000000081
:10556000C90100000A000000AC7306000000000042
:1055700000000000000000005E15060000000000B2
:105580006215060000000000CA0100000A000000C9
:10559000B6730600000000000000000000000000DC
:1055A00069150600000000006915060000000000F3
:1055B000CB0100000A000000C073060000000000DC
:1055C00000000000000000007E1506000000000042
:1055D0008315060000000000CC0100000A00000056
:1055E000CA73060000000000000000000000000078
:1055F0009115060000000000911506000000000053
:10560000CD0100000A000000D47306000000000075
:1056100000000000000000009615060000000000D9
:105620009615060000000000CE0100000A000000F0
:10563000DE73060000000000000000000000000013
:10564000A515060000000000A515060000000000DA
:10565000CF0100000A000000E8730600000000000F
:105660000000000000000000B0150600000000006F
:10567000B015060000000000D00100000A00000084
:10568000F2730600000000000000000000000000AF
:10569000B615060000000000B61506000000000068
:1056A000D10100000A000000FC73060000000000A9
:1056B0000000000000000000C0150600000000000F
:1056C000C015060000000000D20100000A00000022
:1056D000067406000000000000000000000000004A
:1056E000C515060000000000C515060000000000FA
:1056F000D30100000A000000107406000000000042
:105700000000000000000000CD15060000000000B1
:10571000CD15060000000000D40100000A000000C2
:105720001A740600000000000000000000000000E5
:10573000E015060000000000E01506000000000073
:10574000D50100000A0000002474060000000000DB
:105750000000000000000000EE1506000000000040
:10576000EE15060000000000D60100000A0000004F
:105770002E74060000000000000000000000000081
:10578000FE15060000000000FE15060000000000E7
:10579000D70100000A000000387406000000000075
:1057A00000000000000000000D16060000000000D0
:1057B0000D16060000000000D80100000A000000DD
:1057C000427406000000000000000000000000001D
:1057D0001E160600000000001E1606000000000055
:1057E000D90100000A0000004C740600000000000F
:1057F000000000000000000032160600000000005B
:105800003216060000000000DA0100000A00000065
:1058100056740600000000000000000000000000B8
:105820003C160600000000003C16060000000000C8
:10583000DB0100000A0000006074060000000000A8
:1058400000000000000000004916060000000000F3
:105850004916060000000000DC0100000A000000FC
:105860006A74060000000000000000000000000054
:105870005A160600000000005A160600000000003C
:10588000DD0100000A000000747406000000000042
:105890000000000000000000691606000000000083
:1058A0006916060000000000DE0100000A0000008A
:1058B0007E740600000000000000000000000000F0
:1058C00071160600000000007116060000000000BE
:1058D000DF0100000A0000008874060000000000DC
:1058E0000000000000000000861606000000000016
:1058F0008616060000000000E00100000A0000001B
:10590000927406000000000000000000000000008B
:105910008F160600000000008F1606000000000031
:10592000E10100000A0000009C7406000000000075
:1059300000000000000000009816060000000000B3
:105940009816060000000000E20100000A000000B6
:10595000A674060000000000000000000000000027
:10596000A216060000000000A216060000000000BB
:10597000E30100000A000000B0740600000000000F
:105980000000000000000000AE160600000000004D
:10599000AE16060000000000E40100000A0000004E
:1059A000BA740600000000000000000000000000C3
:1059B000BF16060000000000BF1606000000000031
:1059C000E50100000A000000C474060000000000A9
:1059D0000000000000000000CE16060000000000DD
:1059E000CE16060000000000E60100000A000000DC
:1059F000CE7406000000000000000000000000005F
:105A0000E016060000000000E0160600000000009E
:105A1000E70100000A000000D87406000000000042
:105A20000000000000000000EE160600000000006C
:105A3000EE16060000000000E80100000A00000069
:105A4000E2740600000000000000000000000000FA
:105A50000417060000000000041706000000000004
:105A6000E90100000A000000EC74060000000000DC
:105A700000000000000000001917060000000000F0
:105A80001917060000000000EA0100000A000000EB
:105A9000F674060000000000000000000000000096
:105AA0002D170600000000002D1706000000000062
:105AB000EB0100000A000000007506000000000075
:105AC0000000000000000000421706000000000077
:105AD0004217060000000000EC0100000A00000070
