:1000000000300800000000000000000000000000B8
:1000100000000000000000000000000000000000E0
:1000200000000000000000000000000000000000D0
:1000300000000000000000000000000000000000C0
:1000400000000000000000000000000000000000B0
:1000500000000000000000000000000000000000A0
:100060000000000000000000000000000000000090
:100070000000000000000000000000000000000080
:100080000000000000000000000000000000000070
:100090000000000000000000000000000000000060
:1000A0000000000000000000000000000000000050
:1000B000E0D9070000000000301308000000000035
:1000C000341308000000000070D305000000000099
:1000D0003813080000000000401007000000000076
:1000E0001810070000000000F0D907000000000011
:1000F00000DA0700000000002010070000000000E8
:100100005210070000000000000000000000000086
:10011000E5020700000000000020070000000000CA
:10012000F81C08000000000010100700000000008C
:1001300048100700000000005110070000000000F8
:1001400060100700000000006010070000000000C1
:1001500058100700000000005010070000000000C9
:10016000F81C080000000000F81C08000000000057
:10017000F81C080000000000F81C08000000000047
:1001800040DA070000000000CCE30100000000009E
:100190000CEE0100000000009CC7030000000000FE
:1001A00068C1000000000000D0F20700000000005D
:1001B000D0E2070000000000D0DA070000000000D5
:1001C000D00208000000000029170800000000000D
:1001D000DC3B010000000000E4CB03000000000055
:1001E000909B02000000000048170800000000007B
:1001F000901708000000000028DC07000000000045
:10020000241D050000000000F01F05000000000094
:100210005423050000000000342705000000000002
:100220008C2B050000000000FCBA05000000000057
:10023000780A0400000000004C0B050000000000DC
:100240001C0F050000000000381005000000000031
:10025000001305000000000064D604000000000048
:1002600040D504000000000060AD05000000000063
:00000001FF
